:1000000010C02AC029C028C027C026C055C024C09F
:1000100023C031C047C020C01FC01EC01DC01CC0AF
:100020001BC011241FBECFE5D1E0DEBFCDBF10E065
:10003000A0E6B0E0E6E8F3E002C005900D92A63637
:10004000B107D9F710E0A6E6B0E001C01D92AA36CC
:10005000B107E1F7AED095C1D3CF80B7826080BF42
:1000600080E886BF81E08CBF89B7826089BF83B793
:10007000846083BF08951F920F920FB60F921124D0
:100080008F939F938091680090916900019690935F
:100090006900809368009F918F910F900FBE0F9021
:1000A0001F9018951F920F920FB60F9211240F9068
:1000B0000FBE0F901F9018951F920F920FB60F92C0
:1000C00011242F933F934F935F936F937F938F935D
:1000D0009F93AF93BF93EF93FF93DB9A809166005A
:1000E00000000000813009F409C000000000000099
:1000F000000000000000000000000000DB982091DC
:10010000670080916400922F9F5F90936700332770
:1001100027FD309590E08217930734F51092670021
:1001200080916600813079F410926600C6D09C01FF
:1001300097FF02C02150304F9CE0359527959A9546
:10014000E1F7235D0FC081E080936600B6D09C018B
:1001500097FF02C02150304F8CE0359527958A9546
:10016000E1F7275E20936400FF91EF91BF91AF917B
:100170009F918F917F916F915F914F913F912F91BF
:100180000F900FBE0F901F9018958EB588608EBD92
:100190008FEC94E09BBD8ABD81E090E099BD88BD65
:1001A000619A8EB581608EBD0895D99A0895D998C7
:1001B0000895789452DF1BBA18BA8AB38A648ABB4E
:1001C00080B1836080B9479A85B7877E85BF85B740
:1001D000806285BFDADFE9DF01C088958091680021
:1001E00090916900CC97C8F31EBCE1DF8091680054
:1001F000909169008138904770F0C7DFD6DF01C069
:100200008895809168009091690080379147C0F38C
:10021000CEDF8895FECF8895E9CF8F929F92AF92DF
:10022000BF92CF92DF92EF92FF92CF93DF93EC01D8
:10023000688179818A819B816115710581059105AC
:1002400021F464E279ED8BE597E02DE133EF41E0B5
:1002500050E05AD049015A0127EA31E440E050E029
:100260003AD06B017C012CEE34EF4FEF5FEFC5010C
:10027000B40131D0AB01BC01C40ED51EE61EF71E81
:10028000F7FE06C081E0C81AD108E10880E8F80A44
:10029000C882D982EA82FB82E894D7F8EE24FF2450
:1002A000C601DF91CF91FF90EF90DF90CF90BF908C
:1002B000AF909F908F900895B0CF80E690E0ADCF43
:1002C000A0E0B0E08093600090936100A093620092
:1002D000B09363000895FF27EE27BB27AA2760FF8E
:1002E00004C0A20FB31FE41FF51F220F331F441FCA
:1002F000551F969587957795679589F700977607A7
:1003000071F7CF01BD010895052E97FB16F40094F7
:1003100006D057FD0CD013D007FC09D07EF4909581
:100320008095709561957F4F8F4F9F4F08955095A1
:100330004095309521953F4F4F4F5F4F0895A1E273
:100340001A2EAA1BBB1BFD010DC0AA1FBB1FEE1F4F
:10035000FF1FA217B307E407F50720F0A21BB30B9A
:10036000E40BF50B661F771F881F991F1A9469F716
:1003700060957095809590959B01AC01BD01CF0172
:060380000895F894FFCF80
:06038600010000001E0052
:00000001FF
