:1000000010C02AC029C0B3C04AC026C025C024C021
:10001000C6C022C021C020C01FC04BC01DC09AC195
:10002000B4C111241FBECFE5D1E0DEBFCDBF10E0CB
:10003000A0E6B0E0ECECF6E002C005900D92A2362E
:10004000B107D9F710E0A2E6B0E001C01D92A139D6
:10005000B107E1F724D238C3D3CF029828E01BC000
:1000600010BE13BE90B7906290BF90B7916090BFE2
:1000700093B7916093BF2CBFE9E9F0E13197F1F7B5
:1000800000C0000013BEDF98E7E8F3E13197F1F715
:1000900000C0000081508111E3CF029A08951F92A1
:1000A0000F920FB60F9211240F900FBE0F901F905A
:1000B00018951F920F920FB60F9211240F900FBE3A
:1000C0000F901F901895329A339A389A369A85B7BE
:1000D000877E886085BF85B7806285BF889585B734
:1000E0008F7D85BF24B135B1932F80E0822B2FEF18
:1000F00033E0281B390BC901089516BE82E480BF86
:1001000081E083BF089513BE10BE08951F93CF935F
:10011000DF9300D0CDB7DEB710E816BD82E086BD14
:100120000098379A0298E9DF89EF90E00197F1F79C
:1001300000C00000C8DF9FE3EDE0F3E09150E04035
:10014000F040E1F700C00000BEDF89839A83DBDF67
:10015000C298029A3798009A16BD23E026BD89817D
:100160009A810F900F90DF91CF911F9108951F9268
:100170000F920FB60F9211248F939F931EBC8CB5D4
:100180009DB5909364008093630081E0809362004A
:100190009F918F910F900FBE0F901F9018951F92F7
:1001A0000F920FB60F9211248F939F938FEF9FEFB3
:1001B000909364008093630081E0809362009F913C
:1001C0008F910F900FBE0F901F9018950398609A13
:1001D00087B3836087BBC098C19AC09AC19887B320
:1001E0008C7F87BB88B38C7F88BB1DBC1CBC1FBCAD
:1001F00083E08EBD80B5816080BD8BB780628BBF90
:10020000109262000AC085B7877E85BF85B780627D
:1002100085BF889585B78F7D85BF809162008823D3
:1002200091F31EBC8BB78F7D8BBF80B58E7F80BD59
:100230006098039A2091630030916400C901089589
:10024000009884E886B9389A029880E886BD82E0F2
:1002500086BD53DF2FE986E891E021508040904031
:10026000E1F700C0000063D08823E9F387B383601F
:1002700087BBC098C19A48D0811106C024DFC82F1F
:10028000892F32D08C2F11C0813051F43DD0982F5E
:1002900091509E3F58F4682F81E090E007D206C04D
:1002A000823021F481E090E0F9D11ED087B38C7FB9
:1002B00087BB88B38C7F88BBD6CF10926700109223
:1002C0006800109265001092660080936B00109297
:1002D00069008AB380658ABBDC9ADE9AD69888EA80
:1002E0008DB980EF8EB90895909166009F5F9F70E1
:1002F000209165009217E1F3E92FF0E0E459FF4FF8
:1003000080839093660008959091680080916700C3
:100310009817D1F3809167008F5F8F70809367008B
:10032000E0916700F0E0E458FF4F8081089520914C
:1003300068009091670081E0291301C080E0089572
:1003400090938D0080938C00089590938F008093FC
:100350008E0008951F920F920FB60F9211248F9363
:1003600010926A00D698CC9B02C0CE9BFCCFCE994F
:1003700002C088EF01C088EA8DB980EF8EB98F91F5
:100380000F900FBE0F901F9018951F920F920FB6EF
:100390000F9211242F933F934F935F936F937F930B
:1003A0008F939F93AF93BF93EF93FF9380916A00D6
:1003B000823009F444C030F4882361F0813009F0C0
:1003C0005DC022C0843009F440C0C0F0853009F01F
:1003D00055C040C08FB1882331F08FB18695909180
:1003E0006B0089130EC0E0918C00F0918D00309766
:1003F00009F00995789B3BC081E03AC08FB1882312
:1004000019F088EA8DB919C0909166008091650055
:10041000981769F0809165008F5F8F7080936500F9
:10042000E0916500F0E0E459FF4F808101C08FEF5B
:100430008FB982E080936A00D69A80E71EC083E07D
:1004400080936A00D6981FB817C085E080936A0031
:10045000D698F3CF809168008F5F8F70809368008B
:10046000E09168008FB1F0E0E458FF4F808384E0B2
:1004700080936A001FB8D69A8EE78EB9FF91EF91EC
:10048000BF91AF919F918F917F916F915F914F91AC
:100490003F912F910F900FBE0F901F901895CF9303
:1004A000DF931F92CDB7DEB7D89AD898DA9ADA9848
:1004B000DB9ADB98D79ADF98B89AC098B99AC19816
:1004C000BA9AC29881E090E0E9D0982F91509E3F6F
:1004D00008F080E27894F1DE80E886BD83E086BD96
:1004E000789482E0BADD87B3836087BBC098C19AF5
:1004F00083EC99E00197F1F700C0000087B38C7F8F
:1005000087BB88B38C7F88BB9FE9E6E8F1E0915018
:10051000E040F040E1F700C0000058DE82E09DDDE1
:1005200006DF81118DDEF2DD909361008093600023
:100530001DB8099A039A029A3798009A019A81B5D0
:10054000806181BD81B5877F81BD81B5806481BDBA
:1005500081B5866081BD00E09DC001EE04C005E26A
:1005600001C001E010E080E0801798F495B7977E15
:10057000906195BF95B7906295BF95B7946895BF08
:1005800095B79B7F95BF889595B79F7D95BF8F5FEA
:10059000EBCF2983BBDDE0906000F0906100E81AAA
:1005A000F90A29813EECE3163FEFF306CCF4111172
:1005B00073C089E052DD8FE691E1E1E08150904027
:1005C000E040E1F700C0000081E047DD83ED90E30B
:1005D0000197F1F700C0000081E03FDD29815CC098
:1005E0009EECE9169FEFF90679F4213009F4B5CFB6
:1005F00081B58D7F81BD81B58B7F81BD81B58162E4
:1006000081BD01EE21E0AFCF2983E0DD8091630061
:100610009091640029818A3F9F4F18F483E01DDD8B
:100620002981C701C1964D9778F4223009F497CFFC
:1006300081B58D7F81BD81B58B7F81BD81B58162A3
:1006400081BD05E222E08ECFC70143960E9778F474
:10065000233009F486CF81B58D7F81BD81B58B7F35
:1006600081BD81B5816281BD01E023E07BCFFBEFDD
:10067000EF16FFEFFF060CF475CF243009F471CFAD
:1006800081B58F7D81BD81B58E7F81BD81B586604D
:1006900081BD01E024E066CF11E0A7CFE199FECF54
:1006A0001FBA8EBBE09A99278DB30895262FE19942
:1006B000FECF1CBA1FBA8EBB2DBB0FB6F894E29AC0
:0C06C000E19A0FBE01960895F894FFCF58
:0206CC00FFFF2E
:00000001FF
